:020000040000fa
:080000000002040000000000f2
:020000040000fa
:100008009a0200009a0200009a0200009a02000078
:100018009a0200009a0200009a0200009a02000068
:100028009a0200009a0200009a0200009a02000058
:100038009a0200009a0200009a0200009a02000048
:100048009a0200009a0200009a0200009a02000038
:100058009a0200009a0200009a0200009a02000028
:100068009a0200009a0200009a0200006606000048
:100078009a0200009a0200009a0200009a02000008
:100088009a0200009a0200009a0200009a020000f8
:100098009a0200009a0200009a0200009a020000e8
:1000a8009a0200009a0200009a0200009a020000d8
:1000b8009a0200009a0200009a0200009a020000c8
:1000c8009a0200009a0200009a0200009a020000b8
:1000d8009a0200009a0200009a0200009a020000a8
:1000e8009a0200009a0200009a0200009a02000098
:1000f8009a0200009a0200009a0200009a02000088
:100108009a0200009a0200009a0200009a02000077
:100118009a0200009a0200009a0200009a02000067
:100128009a0200009a0200009a0200009a02000057
:100138009a0200009a0200009a0200009a02000047
:100148009a0200009a0200009a0200009a02000037
:100158009a0200009a0200009a0200009a02000027
:100168009a0200009a0200009a0200009a02000017
:100178009a0200009a0200009a0200009a02000007
:100188009a0200009a0200009a0200009a020000f7
:100198009a0200009a0200009a0200009a020000e7
:1001a8009a0200009a0200009a0200009a020000d7
:1001b8009a0200009a0200009a0200009a020000c7
:1001c8009a0200009a0200009a0200009a020000b7
:1001d8009a0200009a0200009a0200009a020000a7
:1001e8009a0200009a0200009a0200009a02000097
:0801f8009a0200009a020000c7
:020000040000fa
:100208009a0200009a0200009a0200009a02000076
:100218009a0200009a0200009a0200009a02000066
:100228009a0200009a0200009a0200009a02000056
:100238009a0200009a0200009a0200009a02000046
:100248009a0200009a0200009a0200009a02000036
:100258009a0200009a0200009a0200009a02000026
:100268009a0200009a0200009a0200006606000046
:100278009a0200009a0200009a0200009a02000006
:100288009a0200009a0200009a0200009a020000f6
:100298009a0200009a0200009a0200009a020000e6
:1002a8009a0200009a0200009a0200009a020000d6
:1002b8009a0200009a0200009a0200009a020000c6
:1002c8009a0200009a0200009a0200009a020000b6
:1002d8009a0200009a0200009a0200009a020000a6
:1002e8009a0200009a0200009a0200009a02000096
:1002f8009a0200009a0200009a0200009a02000086
:100308009a0200009a0200009a0200009a02000075
:100318009a0200009a0200009a0200009a02000065
:100328009a0200009a0200009a0200009a02000055
:100338009a0200009a0200009a0200009a02000045
:100348009a0200009a0200009a0200009a02000035
:100358009a0200009a0200009a0200009a02000025
:100368009a0200009a0200009a0200009a02000015
:100378009a0200009a0200009a0200009a02000005
:100388009a0200009a0200009a0200009a020000f5
:100398009a0200009a0200009a0200009a020000e5
:1003a8009a0200009a0200009a0200009a020000d5
:1003b8009a0200009a0200009a0200009a020000c5
:1003c8009a0200009a0200009a0200009a020000b5
:1003d8009a0200009a0200009a0200009a020000a5
:1003e8009a0200009a0200009a0200009a02000095
:0803f8009a0200009a020000c5
:020000040000fa
:100400008f8020000e7f22000e0188000000000077
:10041000000020000000e000020032000001200087
:10042000200288000c000700e07720000100200077
:1004300011000700000020000000e0000200320070
:100440000000020000000000ec05020000000000b7
:100450000040da000000fe004440a90080012000b6
:100460000000e0000300320000002000a00188002e
:100470004440a80000000600910188008000780038
:100480000000eb0015003700e280400032a0b4000d
:100490009101ba00e280400032a0b4009102ba009b
:1004a000e280400032a0b4000002eb00472bde00e7
:1004b000f507b200602ce10004003a000059eb009f
:1004c0008301e900fdff3e00040037006128e100e0
:1004d000010032000082eb00040007001101ba00a5
:1004e0000200e000e8ff3a00000006003159ba00bf
:1004f0008301e9000c0032002159ba008301e900b0
:10050000080032000400e00003003a00e2804000ee
:1005100032a0b400f5ff370011d9ba008301e90019
:10052000faff3a008100e800e180400032a0b40008
:0c053000000006000040da000000fe00a1
:020000040000fa
:10053c00527500006e6e0000696e000067000000ce
:10054c00537400006f7000007065000064000000c0
:10055c00486500006c6c00006f210000000000007a
:020000040000fa
:10056c000800fa00004f7800110798002207980045
:10057c00330798003e029000e00f52000900320051
:10058c0065168000f4ff2000848262001e43780010
:10059c000682fb004c22dd00050272006416880006
:1005ac000a00370065168000f4ff20008482620088
:1005bc001e4278000483fb00040f20000402630039
:1005cc004822dd0005027200641688001e029000ad
:1005dc0004427800614262000482fb006102620006
:1005ec004722dd0066168000f5f72f0085026300b8
:1005fc00050272006416880010002000ea01070052
:10060c00ccc2a80010002000e7010700ccc2a90052
:10061c0010002000e40107002e009000e20107000a
:10062c000080fa00000006000600fa00004f780077
:10063c0011079800220798008001eb002e01900012
:10064c009e0090001e407800c5ff0700130020009c
:10065c002e0190009e0090001e407800c0ff070005
:10066c000080fa00000006000200fa00004f78003b
:10067c001e427800e20220001100200004407800a5
:10068c00e9ff07000080fa00000006000200fa00f3
:10069c000002eb00040f7800c9e2a900c9c2a9004e
:1006ac00c9a2a900c982a900c8e2a900c8c2a900b0
:1006bc0065168000f4ff2000048262006416880036
:1006cc00cce2a900ccc2a9000002eb00040f780018
:1006dc0003003700803e2000b30107001e0fe80026
:1006ec001e027800ee0f5200faff340013002000b7
:1006fc00420021008000eb0030c0b30098ff0700df
:10070c0013002000420620008000eb0030c0b30034
:10071c0093ff0700420620008000eb0020c3b300cb
:10072c00c1ff0700820220008000eb0080c2b300f2
:10073c00bdff0700820220008000eb0080c0b300e8
:10074c00b9ff0700c25d20008000eb0010c0b300b1
:10075c00b5ff0700820220008000eb0060c0b300f0
:10076c00b1ff0700820220008000eb00c0c0b30084
:10077c00adff0700400620008b0107000080fa0047
:10078c00000006000200fa00000f78000500370098
:10079c001e0278001442780004407800b2ff070073
:1007ac001e0fe8001e02780014427800e04f520041
:1007bc00f7ff3a000080fa00000006000000fa0083
:1007cc00c25d20008000eb0010c0b30096ff070054
:1007dc000080fa00000006000400fa002047980090
:1007ec003147980004c8b300044f7800ae42900023
:1007fc0064002000042add00144798001e4290007b
:10080c001e4f72003e4290001e4f7200820220006a
:10081c008000eb001e40780083ff07000080fa0088
:10082c00000006000400fa00100798001e02900059
:10083c00e00f520003003a0004c3b300044f7800e9
:10084c00350037001e029000e10f520003003a0001
:10085c0014c3b300044f78002f0037001e02900021
:10086c00e20f520003003a0024c3b300044f780097
:10087c00290037001e029000e30f520003003a00db
:10088c0034c3b300044f7800230037001e029000dd
:10089c00e40f520003003a0044c3b300044f780045
:1008ac001d0037001e029000e50f520003003a00b5
:1008bc0054c3b300044f7800170037001e02900099
:1008cc00e60f520003003a0064c3b300044f7800f3
:1008dc00110037001e029000e70f520003003a008f
:1008ec0074c3b300044f78000b0037001e02900055
:1008fc00e80f520003003a0084c3b300044f7800a1
:10090c00050037001e029000e90f520002003a0069
:10091c0094c3b300044f78001e4278000440780062
:10092c000080fa00000006000e00fa006007980034
:10093c00ee029000c4032000110009008402d800cc
:10094c0001027800040f7800ee029000c40320002e
:10095c00110009008402d800000278006407980096
:10096c00ee029000c4032000110009008402d8009c
:10097c000102780014079800ee029000c4032000d6
:10098c00110009008402d8000002780024079800a6
:10099c00ae029000a4002000110009008402d800cf
:1009ac0000027800040078009eff070000427800e7
:1009bc00644798008040eb0010c0b30086ff07002e
:1009cc006e40900028ff0700ae029000a4002000ab
:1009dc00110009008402d80001027800040078009c
:1009ec0090ff0700004278007447980011c0b300d4
:1009fc0010c0b30078ff07007e4090001aff07007c
:100a0c0021c0b30010c0b30073ff0700a0c3b30034
:100a1c0015ff07009e029000a400200011000900a1
:100a2c008402d80000027800040078007dff0700e3
:100a3c0000427800044f980031c0b30010c0b300de
:100a4c0065ff07000e48900007ff07009e0290000c
:100a5c00a4002000110009008402d80001027800d3
:100a6c00040078006fff070000427800144f9800d4
:100a7c0041c0b30010c0b30057ff07001e489000e0
:100a8c00f9fe070051c0b30010c0b30052ff0700bd
:100a9c00a0c3b300f4fe07009e027800a40020005f
:100aac00110009008402d8000002780004007800cc
:100abc005cff070000427800244f980061c0b3002f
:100acc0010c0b30044ff07002e489000e6fe07005c
:100adc009e027800a4002000110009008402d800b6
:100aec0001027800040078004eff070000427800f5
:100afc00344f980071c0b30010c0b30036ff07002c
:100b0c003e489000d8fe07000080fa000000060066
:100b1c000200fa00ddfe070030c6b300d2fe07006b
:100b2c000002eb00040f780003003700803e200029
:100b3c009d0007001e0fe800743e20009e02780006
:100b4c00848f5200f9ff34001cff07008040eb003b
:100b5c000040eb0020ff0700e02a280009ff0700f7
:100b6c0021c0b30010c0b3001bff07000002eb0054
:100b7c00040f780003003700803e20008a00070035
:100b8c001e0fe800743e20009e027800848f5200f5
:100b9c00f9ff3400e02a2800fafe07000002eb00ff
:100bac00040f780003003700803e20007e00070011
:100bbc001e0fe800743e20009e027800848f5200c5
:100bcc00f9ff34000080fa00000006000000fa0073
:100bdc00a1000700a9000700c0000700abfe07003a
:100bec0024002000044088000100370000000000b1
:100bfc000440800005002000360020000700200083
:100c0c00860f5200878f5a00f8ff3e0004600100e7
:100c1c00030037001300370017003700220037009d
:100c2c00c402a900c422a800e4fe07008040eb0027
:100c3c000040eb00e8fe0700e0292800d1fe070089
:100c4c000071220058000700344080000402e800c4
:100c5c0034408800344080000400780032ff0700e4
:100c6c0016003700007122004f00070024002000fe
:100c7c000440880011003700c402a800c422a90057
:100c8c00cefe07008040eb000040eb00d2fe0700d8
:100c9c00602a2800bbfe0700344080000400780066
:100cac0021ff070005003700007122003e000700fd
:100cbc000002eb000440880000000000ccff37006d
:100ccc00849fbe003400f80004002000a4018800ba
:100cdc000000fa008660a90055168000040220006e
:100cec0004826200e00f520002003a00140020005f
:100cfc00144088005416800064026200e00f520019
:100d0c0002003a0014002000244088005516800090
:100d1c000402200004826200e00f52000a0032003c
:100d2c0014408000e10f520007003a000002eb0073
:100d3c001440880004408000e00f52000200320092
:100d4c000002eb00344088005416800064026200fc
:100d5c00e00f52001000320024408000e10f5200de
:100d6c000d003a000002eb00244088000440800093
:100d7c00e00f520003003a001400200004408800e9
:100d8c000500370004408000e20f520002003a00d8
:100d9c0034002000044088000080fa003400f90080
:100dac004f02be00004006000200fa00000f78005f
:100dbc001e0278006e22b9000402780064088800d4
:100dcc000002eb0034088800840880000440a10075
:100ddc000450a1008408880084e0a90011e1a80057
:100dec00000000002504800004082000048262003a
:100dfc00e00f5200fbff320084e0a90011e1a900d2
:100e0c000080fa00000006000000fa0074002000c8
:100e1c0044118800040028000411880004442000b8
:100e2c00141188002535800004fe2f000482620016
:100e3c009400b300243588004536800004fe2f0052
:100e4c00048262003400b300443688008560a90037
:100e5c000080fa00000006000000fa00c002a900a1
:100e6c00c022a900c602a800c622a800c402a9007c
:100e7c00c422a8000080fa00000006000000fa005e
:100e8c00c842a8002c83a8008660a9009660a80020
:100e9c0060c0a80068c0a8000080fa00000006002e
:100eac000200fa00000f7800641680000082eb004c
:100ebc0064168800350120001e82520015002000a7
:100ecc00042add00840278006416800004826a0023
:100edc00641688000080fa00000006000000fa008a
:100eec00c8a2a8006360a8000080fa0000000600f9
:020000040000fa
:100efc0000080000080000000000000000000000d6
:020000040000fa
:020000040001f9
:0457f800ad7b000085
:020000040000fa
:020000040001f9
:0457fc003f3f00002b
:00000001FF
