:020000040000fa
:080000000002040000000000f2
:020000040000fa
:100008009a0200009a0200009a0200009a02000078
:100018009a0200009a0200009a0200009a02000068
:100028009a0200009a0200009a0200009a02000058
:100038009a0200009a0200009a0200009a02000048
:020000040000fa
:020000040000fa
:100400000f8020000e7f22000e01880000000000f7
:10041000000020000000e000020032000001200087
:10042000200288000c000700c047200001002000c7
:1004300011000700000020000000e0000200320070
:10044000000002000000000076040200000000002e
:100450000040da000000fe004440a9000000200037
:100460000000e0000300320000002000a00188002e
:100470004440a80000000600910188008000780038
:100480000000eb0015003700e280400032a0b4000d
:100490009101ba00e280400032a0b4009102ba009b
:1004a000e280400032a0b4000002eb00472bde00e7
:1004b000f507b200602ce10004003a000059eb009f
:1004c0008301e900fdff3e00040037006128e100e0
:1004d000010032000082eb00040007001101ba00a5
:1004e0000200e000e8ff3a00000006003159ba00bf
:1004f0008301e9000c0032002159ba008301e900b0
:10050000080032000400e00003003a00e2804000ee
:1005100032a0b400f5ff370011d9ba008301e90019
:10052000faff3a008100e800e180400032a0b40008
:0c053000000006000040da000000fe00a1
:020000040000fa
:10053c000800fa00004f7800110798002207980075
:10054c00330798003e029000e00f52000900320081
:10055c0065168000f4ff2000848262001e43780040
:10056c000682fb004c22dd00050272006416880036
:10057c000a00370065168000f4ff200084826200b8
:10058c001e4278000483fb00040f20000402630069
:10059c004822dd0005027200641688001e029000dd
:1005ac0004427800614262000482fb006102620036
:1005bc004722dd0066168000f5f72f0085026300e8
:1005cc0005027200641688001000200091000700dc
:1005dc00ccc2a800100020008e000700ccc2a900dd
:1005ec00100020008b0007002e00900089000700ef
:1005fc000080fa00000006000600fa00004f7800a8
:10060c0011079800220798008001eb002e01900042
:10061c009e0090001e407800c5ff070013002000cc
:10062c002e0190009e0090001e407800c0ff070035
:10063c000080fa00000006000200fa00004f78006b
:10064c001e427800e20220001100200004407800d5
:10065c00e9ff07000080fa00000006000200fa0023
:10066c000002eb00040f7800c9e2a900c9c2a9007e
:10067c00c9a2a900c982a900c8e2a900c8c2a900e0
:10068c0065168000f4ff2000048262006416880066
:10069c00cce2a900ccc2a9000002eb00040f780048
:1006ac0003003700803e20005a0007001e0fe800b0
:1006bc001e027800ee0f5200faff340013002000e7
:1006cc00420021008000eb0030c0b30098ff07000f
:1006dc0013002000420620008000eb0030c0b30065
:1006ec0093ff0700420620008000eb0020c3b300fc
:1006fc00c1ff0700820220008000eb0080c2b30023
:10070c00bdff0700820220008000eb0080c0b30018
:10071c00b9ff0700c25d20008000eb0010c0b300e1
:10072c00b5ff0700820220008000eb0060c0b30020
:10073c00b1ff0700820220008000eb00c0c0b300b4
:10074c00adff070040062000320007000080fa00d1
:10075c00000006000200fa00000f78000080fa008a
:10076c00000006000000fa00426a20008000eb0046
:10077c0010c0b300a0ff07000080fa0000000600c4
:10078c000200fa00004f7800114798000080fa0030
:10079c00000006000000fa00b0ff070030c6b300ee
:1007ac00a5ff07000080fa00000006000000fa0018
:1007bc00c9e2a900c9c2a900c9a2a900c982a9009d
:1007cc00cde2a800cdc2a800cda2a800cd82a80081
:1007dc000080fa00000006000200fa00000f78000a
:1007ec00641680000082eb0064168800350120003e
:1007fc001e82520015002000042add0084027800bd
:10080c006416800004826a00641688000080fa0076
:10081c00000006000200fa00000f78001e027800ab
:10082c006e22b90004027800640888000002eb0014
:10083c0034088800840880000440a1000450a10002
:10084c008408880084e0a90011e1a80000000000e1
:10085c00250480000408200004826200e00f52008e
:10086c00fbff320084e0a90011e1a9000080fa002e
:10087c00000006000000fa007400200044118800fb
:10088c00040028000411880004442000141188007e
:10089c002535800004fe2f00048262009400b30012
:1008ac00243588004536800004fe2f000482620047
:1008bc003400b300443688008560a9000080fa003b
:1008cc00000006000000fa00c8a2a8008660a8007c
:1008dc009660a8006360a8000080fa000000060083
:0c08ec000000fa00abff0700feff370021
:020000040000fa
:0408f80000000000fc
:020000040000fa
:020000040001f9
:0457f800ad7b000085
:020000040000fa
:020000040001f9
:0457fc003f3f00002b
:00000001FF
